{
  "contractName": "Staking",
  "abi": [
    {
      "inputs": [
        {
          "internalType": "contract IERC20",
          "name": "_CWS",
          "type": "address"
        }
      ],
      "stateMutability": "nonpayable",
      "type": "constructor"
    },
    {
      "anonymous": false,
      "inputs": [
        {
          "indexed": true,
          "internalType": "address",
          "name": "stakingToken",
          "type": "address"
        },
        {
          "indexed": true,
          "internalType": "address",
          "name": "owner",
          "type": "address"
        },
        {
          "indexed": false,
          "internalType": "uint256",
          "name": "id",
          "type": "uint256"
        },
        {
          "indexed": false,
          "internalType": "uint256",
          "name": "amount",
          "type": "uint256"
        },
        {
          "indexed": false,
          "internalType": "uint256",
          "name": "claimedTime",
          "type": "uint256"
        }
      ],
      "name": "Claimed",
      "type": "event"
    },
    {
      "anonymous": false,
      "inputs": [
        {
          "indexed": true,
          "internalType": "address",
          "name": "stakingToken",
          "type": "address"
        },
        {
          "indexed": true,
          "internalType": "address",
          "name": "owner",
          "type": "address"
        },
        {
          "indexed": false,
          "internalType": "uint256",
          "name": "id",
          "type": "uint256"
        },
        {
          "indexed": false,
          "internalType": "uint256",
          "name": "amount",
          "type": "uint256"
        },
        {
          "indexed": false,
          "internalType": "uint256",
          "name": "startTime",
          "type": "uint256"
        },
        {
          "indexed": false,
          "internalType": "uint256",
          "name": "totalStaked",
          "type": "uint256"
        }
      ],
      "name": "Deposited",
      "type": "event"
    },
    {
      "anonymous": false,
      "inputs": [
        {
          "indexed": true,
          "internalType": "address",
          "name": "previousOwner",
          "type": "address"
        },
        {
          "indexed": true,
          "internalType": "address",
          "name": "newOwner",
          "type": "address"
        }
      ],
      "name": "OwnershipTransferred",
      "type": "event"
    },
    {
      "anonymous": false,
      "inputs": [
        {
          "indexed": true,
          "internalType": "address",
          "name": "stakingToken",
          "type": "address"
        },
        {
          "indexed": false,
          "internalType": "uint256",
          "name": "id",
          "type": "uint256"
        },
        {
          "indexed": false,
          "internalType": "uint256",
          "name": "reward",
          "type": "uint256"
        },
        {
          "indexed": false,
          "internalType": "uint256",
          "name": "startTime",
          "type": "uint256"
        },
        {
          "indexed": false,
          "internalType": "uint256",
          "name": "endTime",
          "type": "uint256"
        },
        {
          "indexed": false,
          "internalType": "uint256",
          "name": "generation",
          "type": "uint256"
        }
      ],
      "name": "SessionStarted",
      "type": "event"
    },
    {
      "anonymous": false,
      "inputs": [
        {
          "indexed": true,
          "internalType": "address",
          "name": "stakingToken",
          "type": "address"
        },
        {
          "indexed": true,
          "internalType": "address",
          "name": "owner",
          "type": "address"
        },
        {
          "indexed": false,
          "internalType": "uint256",
          "name": "id",
          "type": "uint256"
        },
        {
          "indexed": false,
          "internalType": "uint256",
          "name": "amount",
          "type": "uint256"
        },
        {
          "indexed": false,
          "internalType": "uint256",
          "name": "startTime",
          "type": "uint256"
        },
        {
          "indexed": false,
          "internalType": "uint256",
          "name": "totalStaked",
          "type": "uint256"
        }
      ],
      "name": "Withdrawn",
      "type": "event"
    },
    {
      "inputs": [],
      "name": "CWS",
      "outputs": [
        {
          "internalType": "contract IERC20",
          "name": "",
          "type": "address"
        }
      ],
      "stateMutability": "view",
      "type": "function",
      "constant": true
    },
    {
      "inputs": [
        {
          "internalType": "uint256",
          "name": "",
          "type": "uint256"
        },
        {
          "internalType": "address",
          "name": "",
          "type": "address"
        }
      ],
      "name": "balances",
      "outputs": [
        {
          "internalType": "uint256",
          "name": "amount",
          "type": "uint256"
        },
        {
          "internalType": "uint256",
          "name": "claimed",
          "type": "uint256"
        },
        {
          "internalType": "uint256",
          "name": "claimedTime",
          "type": "uint256"
        },
        {
          "internalType": "bool",
          "name": "minted",
          "type": "bool"
        }
      ],
      "stateMutability": "view",
      "type": "function",
      "constant": true
    },
    {
      "inputs": [
        {
          "internalType": "uint256",
          "name": "",
          "type": "uint256"
        },
        {
          "internalType": "address",
          "name": "",
          "type": "address"
        }
      ],
      "name": "depositTime",
      "outputs": [
        {
          "internalType": "uint256",
          "name": "",
          "type": "uint256"
        }
      ],
      "stateMutability": "view",
      "type": "function",
      "constant": true
    },
    {
      "inputs": [
        {
          "internalType": "address",
          "name": "",
          "type": "address"
        }
      ],
      "name": "lastSessionIds",
      "outputs": [
        {
          "internalType": "uint256",
          "name": "",
          "type": "uint256"
        }
      ],
      "stateMutability": "view",
      "type": "function",
      "constant": true
    },
    {
      "inputs": [],
      "name": "owner",
      "outputs": [
        {
          "internalType": "address",
          "name": "",
          "type": "address"
        }
      ],
      "stateMutability": "view",
      "type": "function",
      "constant": true
    },
    {
      "inputs": [],
      "name": "renounceOwnership",
      "outputs": [],
      "stateMutability": "nonpayable",
      "type": "function"
    },
    {
      "inputs": [
        {
          "internalType": "uint256",
          "name": "",
          "type": "uint256"
        }
      ],
      "name": "sessions",
      "outputs": [
        {
          "internalType": "address",
          "name": "stakingToken",
          "type": "address"
        },
        {
          "internalType": "uint256",
          "name": "totalReward",
          "type": "uint256"
        },
        {
          "internalType": "uint256",
          "name": "period",
          "type": "uint256"
        },
        {
          "internalType": "uint256",
          "name": "startTime",
          "type": "uint256"
        },
        {
          "internalType": "uint256",
          "name": "generation",
          "type": "uint256"
        },
        {
          "internalType": "uint256",
          "name": "claimed",
          "type": "uint256"
        },
        {
          "internalType": "uint256",
          "name": "amount",
          "type": "uint256"
        },
        {
          "internalType": "uint256",
          "name": "rewardUnit",
          "type": "uint256"
        }
      ],
      "stateMutability": "view",
      "type": "function",
      "constant": true
    },
    {
      "inputs": [
        {
          "internalType": "address",
          "name": "newOwner",
          "type": "address"
        }
      ],
      "name": "transferOwnership",
      "outputs": [],
      "stateMutability": "nonpayable",
      "type": "function"
    },
    {
      "inputs": [
        {
          "internalType": "address",
          "name": "_tokenAddress",
          "type": "address"
        }
      ],
      "name": "withdrawCWS",
      "outputs": [],
      "stateMutability": "nonpayable",
      "type": "function"
    },
    {
      "inputs": [
        {
          "internalType": "address",
          "name": "_tokenAddress",
          "type": "address"
        },
        {
          "internalType": "uint256",
          "name": "_totalReward",
          "type": "uint256"
        },
        {
          "internalType": "uint256",
          "name": "_period",
          "type": "uint256"
        },
        {
          "internalType": "uint256",
          "name": "_startTime",
          "type": "uint256"
        },
        {
          "internalType": "uint256",
          "name": "_generation",
          "type": "uint256"
        }
      ],
      "name": "startSession",
      "outputs": [],
      "stateMutability": "nonpayable",
      "type": "function"
    },
    {
      "inputs": [
        {
          "internalType": "address",
          "name": "_address",
          "type": "address"
        }
      ],
      "name": "setNFTFactory",
      "outputs": [],
      "stateMutability": "nonpayable",
      "type": "function"
    },
    {
      "inputs": [
        {
          "internalType": "uint256",
          "name": "_sessionId",
          "type": "uint256"
        },
        {
          "internalType": "uint256",
          "name": "_amount",
          "type": "uint256"
        }
      ],
      "name": "deposit",
      "outputs": [],
      "stateMutability": "nonpayable",
      "type": "function"
    },
    {
      "inputs": [
        {
          "internalType": "uint256",
          "name": "_sessionId",
          "type": "uint256"
        }
      ],
      "name": "claim",
      "outputs": [],
      "stateMutability": "nonpayable",
      "type": "function"
    },
    {
      "inputs": [
        {
          "internalType": "uint256",
          "name": "_sessionId",
          "type": "uint256"
        },
        {
          "internalType": "uint256",
          "name": "_amount",
          "type": "uint256"
        }
      ],
      "name": "withdraw",
      "outputs": [],
      "stateMutability": "nonpayable",
      "type": "function"
    },
    {
      "inputs": [
        {
          "internalType": "uint256",
          "name": "_sessionId",
          "type": "uint256"
        }
      ],
      "name": "claimNFT",
      "outputs": [],
      "stateMutability": "nonpayable",
      "type": "function"
    },
    {
      "inputs": [
        {
          "internalType": "uint256",
          "name": "_sessionId",
          "type": "uint256"
        },
        {
          "internalType": "address",
          "name": "_owner",
          "type": "address"
        }
      ],
      "name": "stakedBalanceOf",
      "outputs": [
        {
          "internalType": "uint256",
          "name": "",
          "type": "uint256"
        }
      ],
      "stateMutability": "view",
      "type": "function",
      "constant": true
    },
    {
      "inputs": [
        {
          "internalType": "uint256",
          "name": "_sessionId",
          "type": "uint256"
        },
        {
          "internalType": "address",
          "name": "_owner",
          "type": "address"
        }
      ],
      "name": "earned",
      "outputs": [
        {
          "internalType": "uint256",
          "name": "",
          "type": "uint256"
        }
      ],
      "stateMutability": "view",
      "type": "function",
      "constant": true
    },
    {
      "inputs": [
        {
          "internalType": "uint256",
          "name": "_sessionId",
          "type": "uint256"
        },
        {
          "internalType": "address",
          "name": "_owner",
          "type": "address"
        }
      ],
      "name": "claimable",
      "outputs": [
        {
          "internalType": "uint256",
          "name": "",
          "type": "uint256"
        }
      ],
      "stateMutability": "view",
      "type": "function",
      "constant": true
    },
    {
      "inputs": [
        {
          "internalType": "uint256",
          "name": "_sessionId",
          "type": "uint256"
        }
      ],
      "name": "stakedBalance",
      "outputs": [
        {
          "internalType": "uint256",
          "name": "",
          "type": "uint256"
        }
      ],
      "stateMutability": "view",
      "type": "function",
      "constant": true
    }
  ],
  "bytecode": "0x6080604052670de0b6b3a764000060015560006005553480156200002257600080fd5b50604051620036a7380380620036a7833981810160405260208110156200004857600080fd5b810190808051906020019092919050505060006200006b6200015160201b60201c565b9050806000806101000a81548173ffffffffffffffffffffffffffffffffffffffff021916908373ffffffffffffffffffffffffffffffffffffffff1602179055508073ffffffffffffffffffffffffffffffffffffffff16600073ffffffffffffffffffffffffffffffffffffffff167f8be0079c531659141344cd1fd0a4f28419497f9722a3daafe3b4186f6b6457e060405160405180910390a35080600360006101000a81548173ffffffffffffffffffffffffffffffffffffffff021916908373ffffffffffffffffffffffffffffffffffffffff1602179055505062000159565b600033905090565b61353e80620001696000396000f3fe608060405234801561001057600080fd5b50600436106101215760003560e01c806383c4b7a3116100ad578063e2bbb15811610071578063e2bbb158146105b6578063e39c08fc146105ee578063f256cad514610650578063f2fde38b14610692578063fe5c873a146106d657610121565b806383c4b7a3146103e35780638da5cb5b14610482578063a0c7f71c146104cc578063cb2d93ce1461052e578063de50fbb71461057257610121565b8063541e33e0116100f4578063541e33e01461026957806358c721fc146102c1578063715018a61461030b5780637bd208b2146103155780637d0c4d471461037757610121565b80631f32033114610126578063379607f5146101a157806337ca4584146101cf578063441a3e7014610231575b600080fd5b6101726004803603604081101561013c57600080fd5b8101908080359060200190929190803573ffffffffffffffffffffffffffffffffffffffff169060200190929190505050610704565b604051808581526020018481526020018381526020018215151515815260200194505050505060405180910390f35b6101cd600480360360208110156101b757600080fd5b810190808035906020019092919050505061074e565b005b61021b600480360360408110156101e557600080fd5b8101908080359060200190929190803573ffffffffffffffffffffffffffffffffffffffff169060200190929190505050610a4a565b6040518082815260200191505060405180910390f35b6102676004803603604081101561024757600080fd5b810190808035906020019092919080359060200190929190505050610a6f565b005b6102ab6004803603602081101561027f57600080fd5b81019080803573ffffffffffffffffffffffffffffffffffffffff169060200190929190505050610db3565b6040518082815260200191505060405180910390f35b6102c9610dcb565b604051808273ffffffffffffffffffffffffffffffffffffffff1673ffffffffffffffffffffffffffffffffffffffff16815260200191505060405180910390f35b610313610df1565b005b6103616004803603604081101561032b57600080fd5b8101908080359060200190929190803573ffffffffffffffffffffffffffffffffffffffff169060200190929190505050610f79565b6040518082815260200191505060405180910390f35b6103e1600480360360a081101561038d57600080fd5b81019080803573ffffffffffffffffffffffffffffffffffffffff16906020019092919080359060200190929190803590602001909291908035906020019092919080359060200190929190505050610fd7565b005b61040f600480360360208110156103f957600080fd5b8101908080359060200190929190505050611618565b604051808973ffffffffffffffffffffffffffffffffffffffff1673ffffffffffffffffffffffffffffffffffffffff1681526020018881526020018781526020018681526020018581526020018481526020018381526020018281526020019850505050505050505060405180910390f35b61048a611680565b604051808273ffffffffffffffffffffffffffffffffffffffff1673ffffffffffffffffffffffffffffffffffffffff16815260200191505060405180910390f35b610518600480360360408110156104e257600080fd5b8101908080359060200190929190803573ffffffffffffffffffffffffffffffffffffffff1690602001909291905050506116a9565b6040518082815260200191505060405180910390f35b6105706004803603602081101561054457600080fd5b81019080803573ffffffffffffffffffffffffffffffffffffffff1690602001909291905050506116bd565b005b6105b46004803603602081101561058857600080fd5b81019080803573ffffffffffffffffffffffffffffffffffffffff1690602001909291905050506117ca565b005b6105ec600480360360408110156105cc57600080fd5b810190808035906020019092919080359060200190929190505050611b47565b005b61063a6004803603604081101561060457600080fd5b8101908080359060200190929190803573ffffffffffffffffffffffffffffffffffffffff169060200190929190505050612208565b6040518082815260200191505060405180910390f35b61067c6004803603602081101561066657600080fd5b8101908080359060200190929190505050612286565b6040518082815260200191505060405180910390f35b6106d4600480360360208110156106a857600080fd5b81019080803573ffffffffffffffffffffffffffffffffffffffff1690602001909291905050506122a6565b005b610702600480360360208110156106ec57600080fd5b81019080803590602001909291905050506124b3565b005b6008602052816000526040600020602052806000526040600020600091509150508060000154908060010154908060020154908060030160009054906101000a900460ff16905084565b600060076000838152602001908152602001600020905060006008600084815260200190815260200160002060003373ffffffffffffffffffffffffffffffffffffffff1673ffffffffffffffffffffffffffffffffffffffff16815260200190815260200160002090506000816000015411610816576040517f08c379a00000000000000000000000000000000000000000000000000000000081526004018080602001828103825260268152602001806132936026913960400191505060405180910390fd5b6000610822843361275a565b905060011515600360009054906101000a900473ffffffffffffffffffffffffffffffffffffffff1673ffffffffffffffffffffffffffffffffffffffff1663a9059cbb33846040518363ffffffff1660e01b8152600401808373ffffffffffffffffffffffffffffffffffffffff1673ffffffffffffffffffffffffffffffffffffffff16815260200182815260200192505050602060405180830381600087803b1580156108d157600080fd5b505af11580156108e5573d6000803e3d6000fd5b505050506040513d60208110156108fb57600080fd5b8101908080519060200190929190505050151514610964576040517f08c379a00000000000000000000000000000000000000000000000000000000081526004018080602001828103825260358152602001806133206035913960400191505060405180910390fd5b61097b8184600501546128ab90919063ffffffff16565b836005018190555061099a8183600101546128ab90919063ffffffff16565b82600101819055504282600201819055503373ffffffffffffffffffffffffffffffffffffffff168360000160009054906101000a900473ffffffffffffffffffffffffffffffffffffffff1673ffffffffffffffffffffffffffffffffffffffff167fd795915374024be1f03204e052bd584b33bb85c9128ede9c54adbe0bbdc2209586844260405180848152602001838152602001828152602001935050505060405180910390a350505050565b6009602052816000526040600020602052806000526040600020600091509150505481565b60006008600084815260200190815260200160002060003373ffffffffffffffffffffffffffffffffffffffff1673ffffffffffffffffffffffffffffffffffffffff16815260200190815260200160002090508181600001541015610b20576040517f08c379a00000000000000000000000000000000000000000000000000000000081526004018080602001828103825260338152602001806132ed6033913960400191505060405180910390fd5b610b298361074e565b60006007600085815260200190815260200160002060000160009054906101000a900473ffffffffffffffffffffffffffffffffffffffff169050600115158173ffffffffffffffffffffffffffffffffffffffff1663a9059cbb33866040518363ffffffff1660e01b8152600401808373ffffffffffffffffffffffffffffffffffffffff1673ffffffffffffffffffffffffffffffffffffffff16815260200182815260200192505050602060405180830381600087803b158015610bef57600080fd5b505af1158015610c03573d6000803e3d6000fd5b505050506040513d6020811015610c1957600080fd5b8101908080519060200190929190505050151514610c82576040517f08c379a00000000000000000000000000000000000000000000000000000000081526004018080602001828103825260408152602001806130da6040913960400191505060405180910390fd5b610c9983836000015461293390919063ffffffff16565b8260000181905550610cca83600760008781526020019081526020016000206006015461293390919063ffffffff16565b60076000868152602001908152602001600020600601819055503373ffffffffffffffffffffffffffffffffffffffff166007600086815260200190815260200160002060000160009054906101000a900473ffffffffffffffffffffffffffffffffffffffff1673ffffffffffffffffffffffffffffffffffffffff167ffabb9e7afa4ef595f60e1ae9041b2b311b4acb27aeaed4b11b6f2abf689af10a868642600760008b8152602001908152602001600020600601546040518085815260200184815260200183815260200182815260200194505050505060405180910390a350505050565b60066020528060005260406000206000915090505481565b600360009054906101000a900473ffffffffffffffffffffffffffffffffffffffff1681565b610df961297d565b73ffffffffffffffffffffffffffffffffffffffff166000809054906101000a900473ffffffffffffffffffffffffffffffffffffffff1673ffffffffffffffffffffffffffffffffffffffff1614610eba576040517f08c379a00000000000000000000000000000000000000000000000000000000081526004018080602001828103825260208152602001807f4f776e61626c653a2063616c6c6572206973206e6f7420746865206f776e657281525060200191505060405180910390fd5b600073ffffffffffffffffffffffffffffffffffffffff166000809054906101000a900473ffffffffffffffffffffffffffffffffffffffff1673ffffffffffffffffffffffffffffffffffffffff167f8be0079c531659141344cd1fd0a4f28419497f9722a3daafe3b4186f6b6457e060405160405180910390a360008060006101000a81548173ffffffffffffffffffffffffffffffffffffffff021916908373ffffffffffffffffffffffffffffffffffffffff160217905550565b60006008600084815260200190815260200160002060008373ffffffffffffffffffffffffffffffffffffffff1673ffffffffffffffffffffffffffffffffffffffff16815260200190815260200160002060000154905092915050565b610fdf61297d565b73ffffffffffffffffffffffffffffffffffffffff166000809054906101000a900473ffffffffffffffffffffffffffffffffffffffff1673ffffffffffffffffffffffffffffffffffffffff16146110a0576040517f08c379a00000000000000000000000000000000000000000000000000000000081526004018080602001828103825260208152602001807f4f776e61626c653a2063616c6c6572206973206e6f7420746865206f776e657281525060200191505060405180910390fd5b600073ffffffffffffffffffffffffffffffffffffffff168573ffffffffffffffffffffffffffffffffffffffff161415611126576040517f08c379a000000000000000000000000000000000000000000000000000000000815260040180806020018281038252603881526020018061340b6038913960400191505060405180910390fd5b42821161117e576040517f08c379a000000000000000000000000000000000000000000000000000000000815260040180806020018281038252603581526020018061339d6035913960400191505060405180910390fd5b600083116111d7576040517f08c379a00000000000000000000000000000000000000000000000000000000081526004018080602001828103825260448152602001806131e86044913960600191505060405180910390fd5b60008411611230576040517f08c379a000000000000000000000000000000000000000000000000000000000815260040180806020018281038252604a815260200180613147604a913960600191505060405180910390fd5b6000600660008773ffffffffffffffffffffffffffffffffffffffff1673ffffffffffffffffffffffffffffffffffffffff16815260200190815260200160002054905060008111156112e3576000151561128a82612985565b1515146112e2576040517f08c379a00000000000000000000000000000000000000000000000000000000081526004018080602001828103825260348152602001806134436034913960400191505060405180910390fd5b5b60006112ef60046129f7565b90506000611308876005546128ab90919063ffffffff16565b905080600360009054906101000a900473ffffffffffffffffffffffffffffffffffffffff1673ffffffffffffffffffffffffffffffffffffffff166370a08231306040518263ffffffff1660e01b8152600401808273ffffffffffffffffffffffffffffffffffffffff1673ffffffffffffffffffffffffffffffffffffffff16815260200191505060206040518083038186803b1580156113aa57600080fd5b505afa1580156113be573d6000803e3d6000fd5b505050506040513d60208110156113d457600080fd5b8101908080519060200190929190505050101561143c576040517f08c379a00000000000000000000000000000000000000000000000000000000081526004018080602001828103825260398152602001806133d26039913960400191505060405180910390fd5b60006114518789612a0590919063ffffffff16565b90506040518061010001604052808a73ffffffffffffffffffffffffffffffffffffffff1681526020018981526020018881526020018781526020018681526020016000815260200160008152602001828152506007600085815260200190815260200160002060008201518160000160006101000a81548173ffffffffffffffffffffffffffffffffffffffff021916908373ffffffffffffffffffffffffffffffffffffffff1602179055506020820151816001015560408201518160020155606082015181600301556080820151816004015560a0820151816005015560c0820151816006015560e082015181600701559050506115526004612a4f565b8160058190555082600660008b73ffffffffffffffffffffffffffffffffffffffff1673ffffffffffffffffffffffffffffffffffffffff168152602001908152602001600020819055508873ffffffffffffffffffffffffffffffffffffffff167fe0188bd667283525a8aa585702d4b3d53ad854d4a61986c4344cf7e0e361799c848a898b8b018a604051808681526020018581526020018481526020018381526020018281526020019550505050505060405180910390a2505050505050505050565b60076020528060005260406000206000915090508060000160009054906101000a900473ffffffffffffffffffffffffffffffffffffffff16908060010154908060020154908060030154908060040154908060050154908060060154908060070154905088565b60008060009054906101000a900473ffffffffffffffffffffffffffffffffffffffff16905090565b60006116b5838361275a565b905092915050565b6116c561297d565b73ffffffffffffffffffffffffffffffffffffffff166000809054906101000a900473ffffffffffffffffffffffffffffffffffffffff1673ffffffffffffffffffffffffffffffffffffffff1614611786576040517f08c379a00000000000000000000000000000000000000000000000000000000081526004018080602001828103825260208152602001807f4f776e61626c653a2063616c6c6572206973206e6f7420746865206f776e657281525060200191505060405180910390fd5b80600260006101000a81548173ffffffffffffffffffffffffffffffffffffffff021916908373ffffffffffffffffffffffffffffffffffffffff16021790555050565b6117d261297d565b73ffffffffffffffffffffffffffffffffffffffff166000809054906101000a900473ffffffffffffffffffffffffffffffffffffffff1673ffffffffffffffffffffffffffffffffffffffff1614611893576040517f08c379a00000000000000000000000000000000000000000000000000000000081526004018080602001828103825260208152602001807f4f776e61626c653a2063616c6c6572206973206e6f7420746865206f776e657281525060200191505060405180910390fd5b6000600660008373ffffffffffffffffffffffffffffffffffffffff1673ffffffffffffffffffffffffffffffffffffffff16815260200190815260200160002054905060008111611930576040517f08c379a00000000000000000000000000000000000000000000000000000000081526004018080602001828103825260238152602001806130b76023913960400191505060405180910390fd5b600060076000838152602001908152602001600020600101541161199f576040517f08c379a000000000000000000000000000000000000000000000000000000000815260040180806020018281038252602b815260200180613268602b913960400191505060405180910390fd5b600015156119ac82612985565b151514611a04576040517f08c379a00000000000000000000000000000000000000000000000000000000081526004018080602001828103825260348152602001806132b96034913960400191505060405180910390fd5b6000611a456007600084815260200190815260200160002060050154600760008581526020019081526020016000206001015461293390919063ffffffff16565b905060008111611aa0576040517f08c379a000000000000000000000000000000000000000000000000000000000815260040180806020018281038252602c8152602001806134dd602c913960400191505060405180910390fd5b611af630611aac611680565b83600360009054906101000a900473ffffffffffffffffffffffffffffffffffffffff1673ffffffffffffffffffffffffffffffffffffffff16612a65909392919063ffffffff16565b60076000838152602001908152602001600020600101546007600084815260200190815260200160002060050181905550611b3c8160055461293390919063ffffffff16565b600581905550505050565b60008111611ba0576040517f08c379a000000000000000000000000000000000000000000000000000000000815260040180806020018281038252603c8152602001806134a1603c913960400191505060405180910390fd5b60008211611bf9576040517f08c379a000000000000000000000000000000000000000000000000000000000815260040180806020018281038252602d81526020018061311a602d913960400191505060405180910390fd5b611c0282612985565b611c57576040517f08c379a00000000000000000000000000000000000000000000000000000000081526004018080602001828103825260278152602001806133766027913960400191505060405180910390fd5b60006007600084815260200190815260200160002060000160009054906101000a900473ffffffffffffffffffffffffffffffffffffffff169050818173ffffffffffffffffffffffffffffffffffffffff166370a08231336040518263ffffffff1660e01b8152600401808273ffffffffffffffffffffffffffffffffffffffff1673ffffffffffffffffffffffffffffffffffffffff16815260200191505060206040518083038186803b158015611d1057600080fd5b505afa158015611d24573d6000803e3d6000fd5b505050506040513d6020811015611d3a57600080fd5b81019080805190602001909291905050501015611da2576040517f08c379a00000000000000000000000000000000000000000000000000000000081526004018080602001828103825260318152602001806131b76031913960400191505060405180910390fd5b600115158173ffffffffffffffffffffffffffffffffffffffff166323b872dd3330866040518463ffffffff1660e01b8152600401808473ffffffffffffffffffffffffffffffffffffffff1673ffffffffffffffffffffffffffffffffffffffff1681526020018373ffffffffffffffffffffffffffffffffffffffff1673ffffffffffffffffffffffffffffffffffffffff1681526020018281526020019350505050602060405180830381600087803b158015611e6157600080fd5b505af1158015611e75573d6000803e3d6000fd5b505050506040513d6020811015611e8b57600080fd5b8101908080519060200190929190505050151514611ef4576040517f08c379a000000000000000000000000000000000000000000000000000000000815260040180806020018281038252603c81526020018061322c603c913960400191505060405180910390fd5b600060076000858152602001908152602001600020905060006008600086815260200190815260200160002060003373ffffffffffffffffffffffffffffffffffffffff1673ffffffffffffffffffffffffffffffffffffffff168152602001908152602001600020905060006009600087815260200190815260200160002060003373ffffffffffffffffffffffffffffffffffffffff1673ffffffffffffffffffffffffffffffffffffffff16815260200190815260200160002054905060008090508360030154821115611fda578260030160009054906101000a900460ff1690505b60008360000154111561203057611ff08761074e565b6120078360000154876128ab90919063ffffffff16565b8360000181905550808360030160006101000a81548160ff0219169083151502179055506120e6565b6040518060800160405280878152602001600081526020014281526020018215158152506008600089815260200190815260200160002060003373ffffffffffffffffffffffffffffffffffffffff1673ffffffffffffffffffffffffffffffffffffffff16815260200190815260200160002060008201518160000155602082015181600101556040820151816002015560608201518160030160006101000a81548160ff0219169083151502179055509050505b6120fd8685600601546128ab90919063ffffffff16565b8460060181905550426009600089815260200190815260200160002060003373ffffffffffffffffffffffffffffffffffffffff1673ffffffffffffffffffffffffffffffffffffffff168152602001908152602001600020819055503373ffffffffffffffffffffffffffffffffffffffff168460000160009054906101000a900473ffffffffffffffffffffffffffffffffffffffff1673ffffffffffffffffffffffffffffffffffffffff167ff3b2a76575670b4eff5a4ad3639d40d32f7ca987adac169e6f9b89a3ab857d2789894289600601546040518085815260200184815260200183815260200182815260200194505050505060405180910390a350505050505050565b600080612215848461275a565b905061227d816008600087815260200190815260200160002060008673ffffffffffffffffffffffffffffffffffffffff1673ffffffffffffffffffffffffffffffffffffffff168152602001908152602001600020600101546128ab90919063ffffffff16565b91505092915050565b600060076000838152602001908152602001600020600601549050919050565b6122ae61297d565b73ffffffffffffffffffffffffffffffffffffffff166000809054906101000a900473ffffffffffffffffffffffffffffffffffffffff1673ffffffffffffffffffffffffffffffffffffffff161461236f576040517f08c379a00000000000000000000000000000000000000000000000000000000081526004018080602001828103825260208152602001807f4f776e61626c653a2063616c6c6572206973206e6f7420746865206f776e657281525060200191505060405180910390fd5b600073ffffffffffffffffffffffffffffffffffffffff168173ffffffffffffffffffffffffffffffffffffffff1614156123f5576040517f08c379a00000000000000000000000000000000000000000000000000000000081526004018080602001828103825260268152602001806131916026913960400191505060405180910390fd5b8073ffffffffffffffffffffffffffffffffffffffff166000809054906101000a900473ffffffffffffffffffffffffffffffffffffffff1673ffffffffffffffffffffffffffffffffffffffff167f8be0079c531659141344cd1fd0a4f28419497f9722a3daafe3b4186f6b6457e060405160405180910390a3806000806101000a81548173ffffffffffffffffffffffffffffffffffffffff021916908373ffffffffffffffffffffffffffffffffffffffff16021790555050565b6124bc81612985565b612511576040517f08c379a00000000000000000000000000000000000000000000000000000000081526004018080602001828103825260238152602001806130b76023913960400191505060405180910390fd5b600015156008600083815260200190815260200160002060003373ffffffffffffffffffffffffffffffffffffffff1673ffffffffffffffffffffffffffffffffffffffff16815260200190815260200160002060030160009054906101000a900460ff161515146125eb576040517f08c379a00000000000000000000000000000000000000000000000000000000081526004018080602001828103825260208152602001807f5365617363617065205374616b696e673a20416c7265616479206d696e74656481525060200191505060405180910390fd5b600260009054906101000a900473ffffffffffffffffffffffffffffffffffffffff1673ffffffffffffffffffffffffffffffffffffffff166340c10f193360076000858152602001908152602001600020600401546040518363ffffffff1660e01b8152600401808373ffffffffffffffffffffffffffffffffffffffff1673ffffffffffffffffffffffffffffffffffffffff16815260200182815260200192505050602060405180830381600087803b1580156126aa57600080fd5b505af11580156126be573d6000803e3d6000fd5b505050506040513d60208110156126d457600080fd5b8101908080519060200190929190505050156127575760016008600083815260200190815260200160002060003373ffffffffffffffffffffffffffffffffffffffff1673ffffffffffffffffffffffffffffffffffffffff16815260200190815260200160002060030160006101000a81548160ff0219169083151502179055505b50565b60008060076000858152602001908152602001600020905060006008600086815260200190815260200160002060008573ffffffffffffffffffffffffffffffffffffffff1673ffffffffffffffffffffffffffffffffffffffff16815260200190815260200160002090506000816000015414806127dd575060008260060154145b156127ed576000925050506128a5565b600015156127fa86612985565b1515141561280d576000925050506128a5565b600061283e83600601546128306001548560000154612b5290919063ffffffff16565b612a0590919063ffffffff16565b9050600061286d60015461285f848760070154612b5290919063ffffffff16565b612a0590919063ffffffff16565b9050600061288884600201544261293390919063ffffffff16565b905061289d8183612b5290919063ffffffff16565b955050505050505b92915050565b600080828401905083811015612929576040517f08c379a000000000000000000000000000000000000000000000000000000000815260040180806020018281038252601b8152602001807f536166654d6174683a206164646974696f6e206f766572666c6f77000000000081525060200191505060405180910390fd5b8091505092915050565b600061297583836040518060400160405280601e81526020017f536166654d6174683a207375627472616374696f6e206f766572666c6f770000815250612bd8565b905092915050565b600033905090565b600080600760008481526020019081526020016000206001015414156129ae57600090506129f2565b60076000838152602001908152602001600020600201546007600084815260200190815260200160002060030154014211156129ed57600090506129f2565b600190505b919050565b600081600001549050919050565b6000612a4783836040518060400160405280601a81526020017f536166654d6174683a206469766973696f6e206279207a65726f000000000000815250612c98565b905092915050565b6001816000016000828254019250508190555050565b612b4c846323b872dd60e01b858585604051602401808473ffffffffffffffffffffffffffffffffffffffff1673ffffffffffffffffffffffffffffffffffffffff1681526020018373ffffffffffffffffffffffffffffffffffffffff1673ffffffffffffffffffffffffffffffffffffffff1681526020018281526020019350505050604051602081830303815290604052907bffffffffffffffffffffffffffffffffffffffffffffffffffffffff19166020820180517bffffffffffffffffffffffffffffffffffffffffffffffffffffffff8381831617835250505050612d5e565b50505050565b600080831415612b655760009050612bd2565b6000828402905082848281612b7657fe5b0414612bcd576040517f08c379a00000000000000000000000000000000000000000000000000000000081526004018080602001828103825260218152602001806133556021913960400191505060405180910390fd5b809150505b92915050565b6000838311158290612c85576040517f08c379a00000000000000000000000000000000000000000000000000000000081526004018080602001828103825283818151815260200191508051906020019080838360005b83811015612c4a578082015181840152602081019050612c2f565b50505050905090810190601f168015612c775780820380516001836020036101000a031916815260200191505b509250505060405180910390fd5b5060008385039050809150509392505050565b60008083118290612d44576040517f08c379a00000000000000000000000000000000000000000000000000000000081526004018080602001828103825283818151815260200191508051906020019080838360005b83811015612d09578082015181840152602081019050612cee565b50505050905090810190601f168015612d365780820380516001836020036101000a031916815260200191505b509250505060405180910390fd5b506000838581612d5057fe5b049050809150509392505050565b6060612dc0826040518060400160405280602081526020017f5361666545524332303a206c6f772d6c6576656c2063616c6c206661696c65648152508573ffffffffffffffffffffffffffffffffffffffff16612e4d9092919063ffffffff16565b9050600081511115612e4857808060200190516020811015612de157600080fd5b8101908080519060200190929190505050612e47576040517f08c379a000000000000000000000000000000000000000000000000000000000815260040180806020018281038252602a815260200180613477602a913960400191505060405180910390fd5b5b505050565b6060612e5c8484600085612e65565b90509392505050565b6060612e708561306b565b612ee2576040517f08c379a000000000000000000000000000000000000000000000000000000000815260040180806020018281038252601d8152602001807f416464726573733a2063616c6c20746f206e6f6e2d636f6e747261637400000081525060200191505060405180910390fd5b600060608673ffffffffffffffffffffffffffffffffffffffff1685876040518082805190602001908083835b60208310612f325780518252602082019150602081019050602083039250612f0f565b6001836020036101000a03801982511681845116808217855250505050505090500191505060006040518083038185875af1925050503d8060008114612f94576040519150601f19603f3d011682016040523d82523d6000602084013e612f99565b606091505b50915091508115612fae578092505050613063565b600081511115612fc15780518082602001fd5b836040517f08c379a00000000000000000000000000000000000000000000000000000000081526004018080602001828103825283818151815260200191508051906020019080838360005b8381101561302857808201518184015260208101905061300d565b50505050905090810190601f1680156130555780820380516001836020036101000a031916815260200191505b509250505060405180910390fd5b949350505050565b60008060007fc5d2460186f7233c927e7db2dcc703c0e500b653ca82273b7bfad8045d85a47060001b9050833f91508082141580156130ad57506000801b8214155b9250505091905056fe5365617363617065205374616b696e673a204e6f206163746976652073657373696f6e5365617363617065205374616b696e673a204661696c656420746f207472616e7366657220746f6b656e2066726f6d20636f6e747261637420746f20757365725365617363617065205374616b696e673a2053657373696f6e206973206e6f74207374617274656420796574215365617363617065205374616b696e673a20546f74616c20726577617264206f6620746f6b656e7320746f2073686172652073686f756c642062652067726561746572207468616e20304f776e61626c653a206e6577206f776e657220697320746865207a65726f20616464726573735365617363617065205374616b696e673a204e6f7420656e6f756768204c5020746f6b656e7320746f206465706f7369745365617363617065205374616b696e673a204c617374696e6720706572696f64206f662073657373696f6e2073686f756c642062652067726561746572207468616e20305365617363617065205374616b696e673a204661696c656420746f207472616e73666572204c5020746f6b656e7320696e746f20636f6e74726163745365617363617065205374616b696e673a204e6f2073657373696f6e2077617320726567697374657265645365617363617065205374616b696e673a204e6f206465706f7369742077617320666f756e645365617363617065205374616b696e673a2053657373696f6e2073686f756c6420656e64206265666f726520636c61696d696e675365617363617065205374616b696e673a2045786365656473207468652062616c616e636520746861742075736572206861735365617363617065205374616b696e673a204661696c656420746f207472616e73666572207265776172642043575320746f6b656e536166654d6174683a206d756c7469706c69636174696f6e206f766572666c6f775365617363617065205374616b696e673a2053657373696f6e206973206e6f74206163746976655365617363617065205374616b696e673a205365617373696f6e2073686f756c6420737461727420696e20746865206675747572655365617363617065205374616b696e673a204e6f7420656e6f7567682062616c616e6365206f662043726f776e7320666f72207265776172645365617363617065205374616b696e673a205374616b696e6720746f6b656e2073686f756c64206e6f7420626520657175616c20746f20305365617363617065205374616b696e673a2043616e2774207374617274207768656e2073657373696f6e206973206163746976655361666545524332303a204552433230206f7065726174696f6e20646964206e6f7420737563636565645365617363617065205374616b696e673a20416d6f756e7420746f206465706f7369742073686f756c642062652067726561746572207468616e20305365617363617065205374616b696e673a204e6f20746f6b656e7320746f207769746864726177206261636ba26469706673582212204fc30d4f85c0b5050e5c09e39b4bd8d01e4eaecd106396924128346d39cb626d64736f6c63430006070033",
  "immutableReferences": {},
  "source": "pragma solidity 0.6.7;\r\n\r\nimport \"./openzeppelin/contracts/token/ERC20/IERC20.sol\";\r\nimport \"./openzeppelin/contracts/token/ERC20/SafeERC20.sol\";\r\nimport \"./openzeppelin/contracts/access/Ownable.sol\";\r\nimport \"./openzeppelin/contracts/math/SafeMath.sol\";\r\nimport \"./openzeppelin/contracts/utils/Counters.sol\";\r\nimport \"./NFTFactory.sol\";\r\n\r\ncontract Staking is Ownable {\r\n    using SafeMath for uint256;\r\n    using SafeERC20 for IERC20;\r\n    using Counters for Counters.Counter;\r\n\r\n    uint256 scaler = 10**18;\r\n\t\r\n    NFTFactory nftFactory;\r\n    \r\n    IERC20 public CWS;\r\n\r\n    Counters.Counter private sessionId;\r\n\r\n    /// @dev Total amount of Crowns stored for all sessions\r\n    uint256 rewardBalance = 0;\r\n    \r\n    struct Session {\r\n\taddress stakingToken;\r\n        uint256 totalReward;\r\n\tuint256 period;\r\n\tuint256 startTime;\r\n\tuint256 generation;\r\n\tuint256 claimed;\r\n\tuint256 amount;\r\n\tuint256 rewardUnit;     // Reward per second = totalReward/period\r\n    }\r\n\r\n    struct Balance {\r\n\tuint256 amount;\r\n\tuint256 claimed;\r\n\tuint256 claimedTime;\r\n\tbool minted;\r\n    }\r\n\r\n    constructor(IERC20 _CWS) public {\r\n\tCWS = _CWS;\r\n    }\r\n\r\n    mapping(address => uint256) public lastSessionIds;\r\n    mapping(uint256 => Session) public sessions;\r\n    mapping(uint256 => mapping(address => Balance)) public balances;\r\n    mapping(uint256 => mapping(address => uint)) public depositTime;\r\n\r\n    event SessionStarted(address indexed stakingToken, uint256 id, uint256 reward, uint256 startTime, uint256 endTime, uint256 generation);\r\n    event Deposited(address indexed stakingToken, address indexed owner, uint256 id, uint256 amount, uint256 startTime, uint256 totalStaked);\r\n    event Claimed(address indexed stakingToken, address indexed owner, uint256 id, uint256 amount, uint256 claimedTime);\r\n    event Withdrawn(address indexed stakingToken, address indexed owner, uint256 id, uint256 amount, uint256 startTime, uint256 totalStaked);\r\n    \r\n    //--------------------------------------------------\r\n    // Only owner\r\n    //--------------------------------------------------\r\n\r\n    /// @notice Withdraws CWS tokens used outside of Crowns\r\n    function withdrawCWS(address _tokenAddress) external onlyOwner {\r\n\tuint256 _sessionId = lastSessionIds[_tokenAddress];\r\n\trequire(_sessionId > 0, \"Seascape Staking: No active session\");\r\n\trequire(sessions[_sessionId].totalReward > 0, \"Seascape Staking: No session was registered\");\r\n\trequire(isStartedFor(_sessionId) == false,    \"Seascape Staking: Session should end before claiming\");\r\n\r\n\tuint256 remained = sessions[_sessionId].totalReward.sub(sessions[_sessionId].claimed);\r\n\trequire(remained > 0,                            \"Seascape Staking: No tokens to withdraw back\");\r\n\r\n\tCWS.safeTransferFrom(address(this), owner(), remained);\r\n\r\n\t// Prevent from double distribution\r\n\tsessions[_sessionId].claimed = sessions[_sessionId].totalReward;\r\n\r\n\trewardBalance = rewardBalance.sub(remained);\r\n    }\r\n\r\n    /// @notice Starts a staking session for a finit _period of\r\n    /// time, starting from _startTime. The _totalReward of\r\n    /// CWS tokens will be distributed in every second. It allows to claim a\r\n    /// a _generation Seascape NFT.\r\n    function startSession(address _tokenAddress,\r\n\t\t\t  uint256 _totalReward,\r\n\t\t\t  uint256 _period,\r\n\t\t\t  uint256 _startTime,\r\n\t\t\t  uint256 _generation) external onlyOwner {\r\n\r\n\trequire(_tokenAddress != address(0),          \"Seascape Staking: Staking token should not be equal to 0\");\r\n\trequire(_startTime > block.timestamp,         \"Seascape Staking: Seassion should start in the future\");\r\n\trequire(_period > 0,                          \"Seascape Staking: Lasting period of session should be greater than 0\");\r\n\trequire(_totalReward > 0,                     \"Seascape Staking: Total reward of tokens to share should be greater than 0\");\r\n\r\n\tuint256 _lastId = lastSessionIds[_tokenAddress];\r\n\tif (_lastId > 0) {\r\n\t    require(isStartedFor(_lastId)==false, \"Seascape Staking: Can't start when session is active\");\r\n\t}\r\n\r\n\tuint256 _sessionId = sessionId.current();\r\n\r\n\tuint256 newRewardBalance = rewardBalance.add(_totalReward);\r\n\t// Amount of tokens to reward should be in the balance already\r\n\trequire(CWS.balanceOf(address(this)) >= newRewardBalance, \"Seascape Staking: Not enough balance of Crowns for reward\");\r\n\r\n\tuint256 _rewardUnit = _totalReward.div(_period);\r\n\t\r\n\tsessions[_sessionId] = Session(_tokenAddress, _totalReward, _period, _startTime, _generation, 0, 0, _rewardUnit);\r\n\r\n\tsessionId.increment();\r\n\trewardBalance = newRewardBalance;\r\n\tlastSessionIds[_tokenAddress] = _sessionId;\r\n\r\n\temit SessionStarted(_tokenAddress, _sessionId, _totalReward, _startTime, _startTime + _period, _generation);\r\n    }\r\n \r\n\r\n    function isStartedFor(uint256 _sessionId) internal view returns(bool) {\r\n\tif (sessions[_sessionId].totalReward == 0) {\r\n\t    return false;\r\n\t}\r\n\r\n\tif (now > sessions[_sessionId].startTime + sessions[_sessionId].period) {\r\n\t    return false;\r\n\t}\r\n\r\n\treturn true;\r\n    }\r\n    \r\n    \r\n    /// @notice Sets a NFT factory that will mint a token for stakers\r\n    function setNFTFactory(address _address) external onlyOwner {\r\n\tnftFactory = NFTFactory(_address);\r\n    }\r\n\r\n\r\n    //--------------------------------------------------\r\n    // Only staker\r\n    //--------------------------------------------------\r\n\r\n    /// @notice Deposits _amount of LP token\r\n    /// of type _token into Staking contract.\r\n    function deposit(uint256 _sessionId, uint256 _amount) external {\r\n\trequire(_amount > 0,              \"Seascape Staking: Amount to deposit should be greater than 0\");\r\n\trequire(_sessionId > 0,           \"Seascape Staking: Session is not started yet!\");\r\n\trequire(isStartedFor(_sessionId), \"Seascape Staking: Session is not active\");\r\n\r\n\tIERC20 _token = IERC20(sessions[_sessionId].stakingToken);\r\n\t\r\n\trequire(_token.balanceOf(msg.sender) >= _amount,\r\n\t\t\"Seascape Staking: Not enough LP tokens to deposit\");\r\n\trequire(_token.transferFrom(msg.sender, address(this), _amount) == true,\r\n\t\t\"Seascape Staking: Failed to transfer LP tokens into contract\");\r\n\r\n\tSession storage _session  = sessions[_sessionId];\r\n\tBalance storage _balance  = balances[_sessionId][msg.sender];\r\n\tuint _depositTime = depositTime[_sessionId][msg.sender];\r\n\r\n\tbool _minted             = false;\r\n\tif (_depositTime > _session.startTime) {\r\n\t    _minted = _balance.minted;\r\n\t}\r\n\t\t\r\n\tif (_balance.amount > 0) {\r\n\t    claim(_sessionId);\r\n\t    _balance.amount = _amount.add(_balance.amount);\r\n\t    _balance.minted = _minted;\r\n\t} else {\r\n\t    // If user withdrew all LP tokens, but deposited before for the session\r\n\t    // Means, that player still can't mint more token anymore.\r\n            balances[_sessionId][msg.sender] = Balance(_amount, 0, block.timestamp, _minted);\r\n\t}\r\n\t\r\n\t_session.amount                        = _session.amount.add(_amount);\r\n\tdepositTime[_sessionId][msg.sender]    = block.timestamp;\r\n       \r\n        emit Deposited(_session.stakingToken, msg.sender, _sessionId, _amount, block.timestamp, _session.amount);\r\n    }\r\n\r\n\r\n    function claim(uint256 _sessionId) public {\r\n\tSession storage _session = sessions[_sessionId];\r\n\tBalance storage _balance = balances[_sessionId][msg.sender];\r\n\r\n\trequire(_balance.amount > 0, \"Seascape Staking: No deposit was found\");\r\n\t\r\n\tuint256 _interest = calculateInterest(_sessionId, msg.sender);\r\n\r\n\trequire(CWS.transfer(msg.sender, _interest) == true,\r\n\t\t\"Seascape Staking: Failed to transfer reward CWS token\");\r\n\t\t\r\n\t_session.claimed = _session.claimed.add(_interest);\r\n\t_balance.claimed = _balance.claimed.add(_interest);\r\n\t_balance.claimedTime = block.timestamp;\r\n\r\n\temit Claimed(_session.stakingToken, msg.sender, _sessionId, _interest, block.timestamp);\r\n    }\r\n\r\n    function calculateInterest(uint256 _sessionId, address _owner) internal view returns(uint256) {\r\n\tSession storage _session = sessions[_sessionId];\r\n\tBalance storage _balance = balances[_sessionId][_owner];\r\n\r\n\t// How much of total deposit is belong to player as a floating number\r\n\tif (_balance.amount == 0 || _session.amount == 0) {\r\n\t    return 0;\r\n\t}\r\n\tif (isStartedFor(_sessionId) == false) {\r\n\t    return 0;\r\n\t}\r\n\r\n\tuint256 _portion = _balance.amount.mul(scaler).div(_session.amount);\r\n\t\r\n       \tuint256 _interest = _session.rewardUnit.mul(_portion).div(scaler);\r\n\r\n\t// _balance.startTime is misleading.\r\n\t// Because, it's updated in every deposit time or claim time.\r\n\tuint256 _earnPeriod = block.timestamp.sub(_balance.claimedTime);\r\n\t\r\n\treturn _interest.mul(_earnPeriod);\r\n    }\r\n\r\n    /// @notice Withdraws _amount of LP token\r\n    /// of type _token out of Staking contract.\r\n    function withdraw(uint256 _sessionId, uint256 _amount) external {\r\n\tBalance storage _balance  = balances[_sessionId][msg.sender];\r\n\r\n\trequire(_balance.amount >= _amount, \"Seascape Staking: Exceeds the balance that user has\");\r\n\r\n\tclaim(_sessionId);\r\n\r\n\tIERC20 _token = IERC20(sessions[_sessionId].stakingToken);\r\n\r\n\trequire(_token.transfer(msg.sender, _amount) == true, \"Seascape Staking: Failed to transfer token from contract to user\");\r\n\t\r\n\t_balance.amount = _balance.amount.sub(_amount);\r\n\tsessions[_sessionId].amount = sessions[_sessionId].amount.sub(_amount);\r\n\r\n\temit Withdrawn(sessions[_sessionId].stakingToken, msg.sender, _sessionId, _amount, block.timestamp, sessions[_sessionId].amount);\r\n    }\r\n\r\n    /// @notice Mints an NFT for staker. One NFT per session, per token.\r\n    function claimNFT(uint256 _sessionId) external {\r\n\trequire(isStartedFor(_sessionId), \"Seascape Staking: No active session\");\r\n\trequire(balances[_sessionId][msg.sender].minted == false, \"Seascape Staking: Already minted\");\r\n\r\n\tif (nftFactory.mint(msg.sender, sessions[_sessionId].generation)) {\r\n\t    balances[_sessionId][msg.sender].minted = true;\r\n\t}\r\n    }\r\n\r\n\r\n    //--------------------------------------------------\r\n    // Public methods\r\n    //--------------------------------------------------\r\n\r\n    /// @notice Returns amount of Token staked by _owner\r\n    function stakedBalanceOf(uint256 _sessionId, address _owner) external view returns(uint256) {\r\n\treturn balances[_sessionId][_owner].amount;\r\n    }\r\n\r\n    /// @notice Returns amount of CWS Tokens earned by _address\r\n    function earned(uint256 _sessionId, address _owner) external view returns(uint256) {\r\n\tuint256 _interest = calculateInterest(_sessionId, _owner);\r\n\treturn balances[_sessionId][_owner].claimed.add(_interest);\r\n    }\r\n\r\n    /// @notice Returns amount of CWS Tokens that _address could claim.\r\n    function claimable(uint256 _sessionId, address _owner) external view returns(uint256) {\r\n\treturn calculateInterest(_sessionId, _owner);\r\n    }\r\n\r\n    /// @notice Returns total amount of Staked LP Tokens\r\n    function stakedBalance(uint256 _sessionId) external view returns(uint256) {\r\n\treturn sessions[_sessionId].amount;\r\n    }\r\n}\r\n\r\n\r\n",
  "sourcePath": "/home/node/app/contracts/Staking.sol",
  "compiler": {
    "name": "solc",
    "version": "0.6.7+commit.b8d736ae.Emscripten.clang"
  },
  "schemaVersion": "3.3.0",
  "updatedAt": "2020-11-04T11:00:13.973Z",
  "networkType": "ethereum",
  "devdoc": {
    "methods": {
      "owner()": {
        "details": "Returns the address of the current owner."
      },
      "renounceOwnership()": {
        "details": "Leaves the contract without owner. It will not be possible to call `onlyOwner` functions anymore. Can only be called by the current owner.     * NOTE: Renouncing ownership will leave the contract without an owner, thereby removing any functionality that is only available to the owner."
      },
      "transferOwnership(address)": {
        "details": "Transfers ownership of the contract to a new account (`newOwner`). Can only be called by the current owner."
      }
    }
  },
  "userdoc": {
    "methods": {
      "claimNFT(uint256)": {
        "notice": "Mints an NFT for staker. One NFT per session, per token."
      },
      "claimable(uint256,address)": {
        "notice": "Returns amount of CWS Tokens that _address could claim."
      },
      "deposit(uint256,uint256)": {
        "notice": "Deposits _amount of LP token of type _token into Staking contract."
      },
      "earned(uint256,address)": {
        "notice": "Returns amount of CWS Tokens earned by _address"
      },
      "setNFTFactory(address)": {
        "notice": "Sets a NFT factory that will mint a token for stakers"
      },
      "stakedBalance(uint256)": {
        "notice": "Returns total amount of Staked LP Tokens"
      },
      "stakedBalanceOf(uint256,address)": {
        "notice": "Returns amount of Token staked by _owner"
      },
      "startSession(address,uint256,uint256,uint256,uint256)": {
        "notice": "Starts a staking session for a finit _period of time, starting from _startTime. The _totalReward of CWS tokens will be distributed in every second. It allows to claim a a _generation Seascape NFT."
      },
      "withdraw(uint256,uint256)": {
        "notice": "Withdraws _amount of LP token of type _token out of Staking contract."
      },
      "withdrawCWS(address)": {
        "notice": "Withdraws CWS tokens used outside of Crowns"
      }
    }
  }
}